{
  "contractName": "EBayClone",
  "abi": [
    {
      "constant": true,
      "inputs": [
        {
          "internalType": "uint256",
          "name": "",
          "type": "uint256"
        }
      ],
      "name": "products",
      "outputs": [
        {
          "internalType": "uint256",
          "name": "id",
          "type": "uint256"
        },
        {
          "internalType": "address payable",
          "name": "seller",
          "type": "address"
        },
        {
          "internalType": "address payable",
          "name": "buyer",
          "type": "address"
        },
        {
          "internalType": "string",
          "name": "name",
          "type": "string"
        },
        {
          "internalType": "string",
          "name": "description",
          "type": "string"
        },
        {
          "internalType": "uint256",
          "name": "price",
          "type": "uint256"
        }
      ],
      "payable": false,
      "stateMutability": "view",
      "type": "function"
    },
    {
      "constant": false,
      "inputs": [
        {
          "internalType": "string",
          "name": "_name",
          "type": "string"
        },
        {
          "internalType": "string",
          "name": "_description",
          "type": "string"
        },
        {
          "internalType": "uint256",
          "name": "_price",
          "type": "uint256"
        }
      ],
      "name": "sellProduct",
      "outputs": [],
      "payable": false,
      "stateMutability": "nonpayable",
      "type": "function"
    },
    {
      "constant": true,
      "inputs": [],
      "name": "getNumberOfProducts",
      "outputs": [
        {
          "internalType": "uint256",
          "name": "",
          "type": "uint256"
        }
      ],
      "payable": false,
      "stateMutability": "view",
      "type": "function"
    },
    {
      "constant": false,
      "inputs": [
        {
          "internalType": "uint256",
          "name": "_id",
          "type": "uint256"
        }
      ],
      "name": "buyProduct",
      "outputs": [],
      "payable": true,
      "stateMutability": "payable",
      "type": "function"
    }
  ],
  "bytecode": "0x608060405234801561001057600080fd5b5061098f806100206000396000f3fe60806040526004361061003f5760003560e01c80633ffd81fb146100445780637acc0b201461006f5780637d33f01e146102035780638642269e1461036c575b600080fd5b34801561005057600080fd5b5061005961039a565b6040518082815260200191505060405180910390f35b34801561007b57600080fd5b506100a86004803603602081101561009257600080fd5b81019080803590602001909291905050506103a3565b604051808781526020018673ffffffffffffffffffffffffffffffffffffffff1673ffffffffffffffffffffffffffffffffffffffff1681526020018573ffffffffffffffffffffffffffffffffffffffff1673ffffffffffffffffffffffffffffffffffffffff1681526020018060200180602001848152602001838103835286818151815260200191508051906020019080838360005b8381101561015c578082015181840152602081019050610141565b50505050905090810190601f1680156101895780820380516001836020036101000a031916815260200191505b50838103825285818151815260200191508051906020019080838360005b838110156101c25780820151818401526020810190506101a7565b50505050905090810190601f1680156101ef5780820380516001836020036101000a031916815260200191505b509850505050505050505060405180910390f35b34801561020f57600080fd5b5061036a6004803603606081101561022657600080fd5b810190808035906020019064010000000081111561024357600080fd5b82018360208201111561025557600080fd5b8035906020019184600183028401116401000000008311171561027757600080fd5b91908080601f016020809104026020016040519081016040528093929190818152602001838380828437600081840152601f19601f820116905080830192505050505050509192919290803590602001906401000000008111156102da57600080fd5b8201836020820111156102ec57600080fd5b8035906020019184600183028401116401000000008311171561030e57600080fd5b91908080601f016020809104026020016040519081016040528093929190818152602001838380828437600081840152601f19601f8201169050808301925050505050505091929192908035906020019092919050505061054f565b005b6103986004803603602081101561038257600080fd5b81019080803590602001909291905050506106c0565b005b60008054905090565b60016020528060005260406000206000915090508060000154908060010160009054906101000a900473ffffffffffffffffffffffffffffffffffffffff16908060020160009054906101000a900473ffffffffffffffffffffffffffffffffffffffff1690806003018054600181600116156101000203166002900480601f0160208091040260200160405190810160405280929190818152602001828054600181600116156101000203166002900480156104a15780601f10610476576101008083540402835291602001916104a1565b820191906000526020600020905b81548152906001019060200180831161048457829003601f168201915b505050505090806004018054600181600116156101000203166002900480601f01602080910402602001604051908101604052809291908181526020018280546001816001161561010002031660029004801561053f5780601f106105145761010080835404028352916020019161053f565b820191906000526020600020905b81548152906001019060200180831161052257829003601f168201915b5050505050908060050154905086565b610557610853565b6040518060c0016040528060005481526020013373ffffffffffffffffffffffffffffffffffffffff168152602001600073ffffffffffffffffffffffffffffffffffffffff1681526020018581526020018481526020018381525090508060016000805481526020019081526020016000206000820151816000015560208201518160010160006101000a81548173ffffffffffffffffffffffffffffffffffffffff021916908373ffffffffffffffffffffffffffffffffffffffff16021790555060408201518160020160006101000a81548173ffffffffffffffffffffffffffffffffffffffff021916908373ffffffffffffffffffffffffffffffffffffffff160217905550606082015181600301908051906020019061067e9291906108b5565b50608082015181600401908051906020019061069b9291906108b5565b5060a08201518160050155905050600080815480929190600101919050555050505050565b6000600160008381526020019081526020016000209050600073ffffffffffffffffffffffffffffffffffffffff168160020160009054906101000a900473ffffffffffffffffffffffffffffffffffffffff1673ffffffffffffffffffffffffffffffffffffffff161461073457600080fd5b8060010160009054906101000a900473ffffffffffffffffffffffffffffffffffffffff1673ffffffffffffffffffffffffffffffffffffffff163373ffffffffffffffffffffffffffffffffffffffff16141561079157600080fd5b806005015434146107a157600080fd5b338160020160006101000a81548173ffffffffffffffffffffffffffffffffffffffff021916908373ffffffffffffffffffffffffffffffffffffffff1602179055508060010160009054906101000a900473ffffffffffffffffffffffffffffffffffffffff1673ffffffffffffffffffffffffffffffffffffffff166108fc349081150290604051600060405180830381858888f1935050505015801561084e573d6000803e3d6000fd5b505050565b6040518060c0016040528060008152602001600073ffffffffffffffffffffffffffffffffffffffff168152602001600073ffffffffffffffffffffffffffffffffffffffff1681526020016060815260200160608152602001600081525090565b828054600181600116156101000203166002900490600052602060002090601f016020900481019282601f106108f657805160ff1916838001178555610924565b82800160010185558215610924579182015b82811115610923578251825591602001919060010190610908565b5b5090506109319190610935565b5090565b61095791905b8082111561095357600081600090555060010161093b565b5090565b9056fea265627a7a72315820a52890b386dd6dff4ce3d652391b45f64a72d803e0fb206c2c8896999c26c57864736f6c63430005100032",
  "source": "pragma solidity ^0.5.16;\r\ncontract EBayClone {\r\n  struct Product {\r\n    uint id;\r\n    address payable seller;\r\n    address payable buyer;\r\n    string name;\r\n    string description;\r\n    uint price;\r\n  }\r\n\r\n  uint productCounter;\r\n  mapping (uint => Product) public products;\r\n\r\n  function sellProduct(string memory _name, string memory _description, uint _price) public {\r\n    Product memory newProduct = Product({\r\n      id: productCounter,\r\n      seller: msg.sender,\r\n      buyer: address(0x0),\r\n      name: _name,\r\n      description: _description,\r\n      price: _price\r\n    });\r\n\r\n    products[productCounter] = newProduct;\r\n    productCounter++;\r\n  }\r\n\r\n  function getNumberOfProducts() public view returns (uint) {\r\n    return productCounter;\r\n  }\r\n\r\n  function buyProduct (uint _id) payable public {\r\n    Product storage product = products[_id];\r\n    require(product.buyer == address(0x0));\r\n    require(msg.sender != product.seller);\r\n    require(msg.value == product.price);\r\n    product.buyer = msg.sender;\r\n    product.seller.transfer(msg.value);\r\n  }\r\n}\r\n",
  "sourcePath": "C:\\Users\\Triinu Tasa\\Kool\\Blockchain\\Project\\HelloWorld\\contracts\\EbayClone.sol",
  "compiler": {
    "name": "solc",
    "version": "0.5.16+commit.9c3226ce.Emscripten.clang"
  },
  "schemaVersion": "3.4.3",
  "updatedAt": "2021-10-20T12:15:07.859Z",
  "devdoc": {
    "methods": {}
  },
  "userdoc": {
    "methods": {}
  }
}