{
  "contractName": "Greetings",
  "abi": [
    {
      "inputs": [],
      "payable": false,
      "stateMutability": "nonpayable",
      "type": "constructor"
    },
    {
      "constant": true,
      "inputs": [],
      "name": "message",
      "outputs": [
        {
          "internalType": "string",
          "name": "",
          "type": "string"
        }
      ],
      "payable": false,
      "stateMutability": "view",
      "type": "function"
    },
    {
      "constant": true,
      "inputs": [],
      "name": "getMessage",
      "outputs": [
        {
          "internalType": "string",
          "name": "",
          "type": "string"
        }
      ],
      "payable": false,
      "stateMutability": "view",
      "type": "function"
    },
    {
      "constant": false,
      "inputs": [],
      "name": "setMessage",
      "outputs": [],
      "payable": false,
      "stateMutability": "nonpayable",
      "type": "function"
    }
  ],
  "bytecode": "0x608060405234801561001057600080fd5b506040518060400160405280600681526020017f54657374203100000000000000000000000000000000000000000000000000008152506000908051906020019061005c929190610062565b50610107565b828054600181600116156101000203166002900490600052602060002090601f016020900481019282601f106100a357805160ff19168380011785556100d1565b828001600101855582156100d1579182015b828111156100d05782518255916020019190600101906100b5565b5b5090506100de91906100e2565b5090565b61010491905b808211156101005760008160009055506001016100e8565b5090565b90565b6103be806101166000396000f3fe608060405234801561001057600080fd5b50600436106100415760003560e01c8063ce6d41de14610046578063e21f37ce146100c9578063e90847f41461014c575b600080fd5b61004e610156565b6040518080602001828103825283818151815260200191508051906020019080838360005b8381101561008e578082015181840152602081019050610073565b50505050905090810190601f1680156100bb5780820380516001836020036101000a031916815260200191505b509250505060405180910390f35b6100d16101f8565b6040518080602001828103825283818151815260200191508051906020019080838360005b838110156101115780820151818401526020810190506100f6565b50505050905090810190601f16801561013e5780820380516001836020036101000a031916815260200191505b509250505060405180910390f35b610154610296565b005b606060008054600181600116156101000203166002900480601f0160208091040260200160405190810160405280929190818152602001828054600181600116156101000203166002900480156101ee5780601f106101c3576101008083540402835291602001916101ee565b820191906000526020600020905b8154815290600101906020018083116101d157829003601f168201915b5050505050905090565b60008054600181600116156101000203166002900480601f01602080910402602001604051908101604052809291908181526020018280546001816001161561010002031660029004801561028e5780601f106102635761010080835404028352916020019161028e565b820191906000526020600020905b81548152906001019060200180831161027157829003601f168201915b505050505081565b6040518060400160405280600681526020017f5465737420320000000000000000000000000000000000000000000000000000815250600090805190602001906102e19291906102e4565b50565b828054600181600116156101000203166002900490600052602060002090601f016020900481019282601f1061032557805160ff1916838001178555610353565b82800160010185558215610353579182015b82811115610352578251825591602001919060010190610337565b5b5090506103609190610364565b5090565b61038691905b8082111561038257600081600090555060010161036a565b5090565b9056fea265627a7a72315820f8d296192d7037c0a6ed54a7cb780ba9f2ab7950c905cd8c97b7657001abc1f764736f6c63430005100032",
  "source": "pragma solidity ^0.5.16;\r\n\r\ncontract Greetings {\r\n  string public message;\r\n\r\n  constructor() public {\r\n    message = 'Test 1';\r\n  }\r\n\r\n  function getMessage() public view returns(string memory){\r\n    return message;\r\n  }\r\n\r\n  function setMessage() public {\r\n    message = 'Test 2';\r\n  }\r\n}\r\n",
  "sourcePath": "C:\\Users\\Triinu Tasa\\Kool\\Blockchain\\Project\\HelloWorld\\contracts\\Greetings.sol",
  "compiler": {
    "name": "solc",
    "version": "0.5.16+commit.9c3226ce.Emscripten.clang"
  },
  "schemaVersion": "3.4.3",
  "updatedAt": "2021-10-20T12:15:07.864Z",
  "devdoc": {
    "methods": {}
  },
  "userdoc": {
    "methods": {}
  }
}